{
  "_format": "hh-sol-artifact-1",
  "contractName": "QuadraticFunding",
  "sourceName": "contracts/QuadraticFunding.sol",
  "abi": [
    {
      "inputs": [],
      "stateMutability": "nonpayable",
      "type": "constructor"
    },
    {
      "anonymous": false,
      "inputs": [
        {
          "indexed": true,
          "internalType": "address",
          "name": "donor",
          "type": "address"
        },
        {
          "indexed": false,
          "internalType": "string",
          "name": "projectId",
          "type": "string"
        },
        {
          "indexed": false,
          "internalType": "uint256",
          "name": "amount",
          "type": "uint256"
        },
        {
          "indexed": false,
          "internalType": "uint256",
          "name": "day",
          "type": "uint256"
        }
      ],
      "name": "DonationReceived",
      "type": "event"
    },
    {
      "anonymous": false,
      "inputs": [
        {
          "indexed": false,
          "internalType": "string",
          "name": "projectId",
          "type": "string"
        },
        {
          "indexed": true,
          "internalType": "address",
          "name": "creator",
          "type": "address"
        }
      ],
      "name": "ProjectRegistered",
      "type": "event"
    },
    {
      "anonymous": false,
      "inputs": [
        {
          "indexed": false,
          "internalType": "string",
          "name": "projectId",
          "type": "string"
        },
        {
          "indexed": false,
          "internalType": "uint256",
          "name": "amount",
          "type": "uint256"
        }
      ],
      "name": "Withdrawn",
      "type": "event"
    },
    {
      "inputs": [],
      "name": "DAY_IN_SECONDS",
      "outputs": [
        {
          "internalType": "uint256",
          "name": "",
          "type": "uint256"
        }
      ],
      "stateMutability": "view",
      "type": "function"
    },
    {
      "inputs": [
        {
          "internalType": "uint256",
          "name": "time",
          "type": "uint256"
        }
      ],
      "name": "addDays",
      "outputs": [],
      "stateMutability": "nonpayable",
      "type": "function"
    },
    {
      "inputs": [
        {
          "internalType": "uint256",
          "name": "x",
          "type": "uint256"
        }
      ],
      "name": "babylonianSqrt",
      "outputs": [
        {
          "internalType": "uint256",
          "name": "z",
          "type": "uint256"
        }
      ],
      "stateMutability": "pure",
      "type": "function"
    },
    {
      "inputs": [
        {
          "internalType": "uint256",
          "name": "",
          "type": "uint256"
        }
      ],
      "name": "dayQuadraticAmount",
      "outputs": [
        {
          "internalType": "uint256",
          "name": "",
          "type": "uint256"
        }
      ],
      "stateMutability": "view",
      "type": "function"
    },
    {
      "inputs": [
        {
          "internalType": "uint256",
          "name": "",
          "type": "uint256"
        }
      ],
      "name": "dayTotalAmount",
      "outputs": [
        {
          "internalType": "uint256",
          "name": "",
          "type": "uint256"
        }
      ],
      "stateMutability": "view",
      "type": "function"
    },
    {
      "inputs": [
        {
          "internalType": "string",
          "name": "projectId",
          "type": "string"
        }
      ],
      "name": "donate",
      "outputs": [],
      "stateMutability": "payable",
      "type": "function"
    },
    {
      "inputs": [],
      "name": "getCurrentDay",
      "outputs": [
        {
          "internalType": "uint256",
          "name": "",
          "type": "uint256"
        }
      ],
      "stateMutability": "view",
      "type": "function"
    },
    {
      "inputs": [
        {
          "internalType": "string",
          "name": "",
          "type": "string"
        }
      ],
      "name": "projects",
      "outputs": [
        {
          "internalType": "address",
          "name": "creator",
          "type": "address"
        },
        {
          "internalType": "uint256",
          "name": "totalAmount",
          "type": "uint256"
        },
        {
          "internalType": "uint256",
          "name": "quadraticAmount",
          "type": "uint256"
        },
        {
          "internalType": "uint256",
          "name": "lastWithdrawDay",
          "type": "uint256"
        }
      ],
      "stateMutability": "view",
      "type": "function"
    },
    {
      "inputs": [
        {
          "internalType": "string",
          "name": "projectId",
          "type": "string"
        }
      ],
      "name": "registerProject",
      "outputs": [],
      "stateMutability": "nonpayable",
      "type": "function"
    },
    {
      "inputs": [],
      "name": "startTimestamp",
      "outputs": [
        {
          "internalType": "uint256",
          "name": "",
          "type": "uint256"
        }
      ],
      "stateMutability": "view",
      "type": "function"
    },
    {
      "inputs": [
        {
          "internalType": "string",
          "name": "projectId",
          "type": "string"
        }
      ],
      "name": "withdraw",
      "outputs": [],
      "stateMutability": "nonpayable",
      "type": "function"
    }
  ],
  "bytecode": "0x6080604052600060035534801561001557600080fd5b50426005819055506113978061002c6000396000f3fe60806040526004361061009c5760003560e01c806372212ec71161006457806372212ec71461019a5780638d2be9cc146101c357806391c9b26814610200578063b5aebc8014610240578063dabd5d651461025c578063e6fd48bc146102855761009c565b806304aa0d39146100a157806331fb67c2146100de5780633426e5fc146101075780633e6968b6146101445780635fdc62811461016f575b600080fd5b3480156100ad57600080fd5b506100c860048036038101906100c39190610baa565b6102b0565b6040516100d59190610be6565b60405180910390f35b3480156100ea57600080fd5b5061010560048036038101906101009190610d47565b610329565b005b34801561011357600080fd5b5061012e60048036038101906101299190610baa565b6105fb565b60405161013b9190610be6565b60405180910390f35b34801561015057600080fd5b50610159610613565b6040516101669190610be6565b60405180910390f35b34801561017b57600080fd5b50610184610643565b6040516101919190610be6565b60405180910390f35b3480156101a657600080fd5b506101c160048036038101906101bc9190610d47565b61064a565b005b3480156101cf57600080fd5b506101ea60048036038101906101e59190610baa565b6107f1565b6040516101f79190610be6565b60405180910390f35b34801561020c57600080fd5b5061022760048036038101906102229190610d47565b610809565b6040516102379493929190610dd1565b60405180910390f35b61025a60048036038101906102559190610d47565b61086f565b005b34801561026857600080fd5b50610283600480360381019061027e9190610baa565b610b30565b005b34801561029157600080fd5b5061029a610b5a565b6040516102a79190610be6565b60405180910390f35b60008082036102c25760009050610324565b8190506000600282846102d59190610e74565b836102e09190610ea5565b6102ea9190610e74565b90505b8181101561032257809150600282846103069190610e74565b836103119190610ea5565b61031b9190610e74565b90506102ed565b505b919050565b6000816040516103399190610f4a565b908152602001604051809103902060000160009054906101000a900473ffffffffffffffffffffffffffffffffffffffff1673ffffffffffffffffffffffffffffffffffffffff163373ffffffffffffffffffffffffffffffffffffffff16146103d8576040517f08c379a00000000000000000000000000000000000000000000000000000000081526004016103cf90610fe4565b60405180910390fd5b60007fffffffffffffffffffffffffffffffffffffffffffffffffffffffffffffffff60008360405161040b9190610f4a565b908152602001604051809103902060030154146104555760016000836040516104349190610f4a565b9081526020016040518091039020600301546104509190610ea5565b610458565b60005b90506000610464610613565b90506000808390505b828110156104ff576000856040516104859190610f4a565b9081526020016040518091039020600401600082815260200190815260200160002054826104b39190610ea5565b9150600080866040516104c69190610f4a565b908152602001604051809103902060040160008381526020019081526020016000208190555080806104f790611004565b91505061046d565b5060008111610543576040517f08c379a000000000000000000000000000000000000000000000000000000000815260040161053a90611098565b60405180910390fd5b60018261055091906110b8565b6000856040516105609190610f4a565b9081526020016040518091039020600301819055503373ffffffffffffffffffffffffffffffffffffffff166108fc829081150290604051600060405180830381858888f193505050501580156105bb573d6000803e3d6000fd5b507f62749ff237dcf6c0dbdc9a51757aae856cf998baab12f1059bd536a28e355f3d84826040516105ed929190611125565b60405180910390a150505050565b60026020528060005260406000206000915090505481565b6000620151806005546003544261062a9190610ea5565b61063491906110b8565b61063e9190610e74565b905090565b6201518081565b600073ffffffffffffffffffffffffffffffffffffffff166000826040516106729190610f4a565b908152602001604051809103902060000160009054906101000a900473ffffffffffffffffffffffffffffffffffffffff1673ffffffffffffffffffffffffffffffffffffffff16146106fa576040517f08c379a00000000000000000000000000000000000000000000000000000000081526004016106f1906111a1565b60405180910390fd5b3360008260405161070b9190610f4a565b908152602001604051809103902060000160006101000a81548173ffffffffffffffffffffffffffffffffffffffff021916908373ffffffffffffffffffffffffffffffffffffffff1602179055507fffffffffffffffffffffffffffffffffffffffffffffffffffffffffffffffff60008260405161078b9190610f4a565b9081526020016040518091039020600301819055503373ffffffffffffffffffffffffffffffffffffffff167f3a8f8a448d1a644d16017e531e2d5bc31fc5741cb919f2d72a9f1c3efe11213f826040516107e691906111c1565b60405180910390a250565b60016020528060005260406000206000915090505481565b6000818051602081018201805184825260208301602085012081835280955050505050506000915090508060000160009054906101000a900473ffffffffffffffffffffffffffffffffffffffff16908060010154908060020154908060030154905084565b600034116108b2576040517f08c379a00000000000000000000000000000000000000000000000000000000081526004016108a990611255565b60405180910390fd5b600073ffffffffffffffffffffffffffffffffffffffff166000826040516108da9190610f4a565b908152602001604051809103902060000160009054906101000a900473ffffffffffffffffffffffffffffffffffffffff1673ffffffffffffffffffffffffffffffffffffffff1603610962576040517f08c379a0000000000000000000000000000000000000000000000000000000008152600401610959906112c1565b60405180910390fd5b600061096c610613565b90506000808360405161097f9190610f4a565b9081526020016040518091039020905060006109af826004016000858152602001908152602001600020546102b0565b9050600034836004016000868152602001908152602001600020546109d49190610ea5565b905060006109e1826102b0565b9050600083826109f191906110b8565b905034856001016000828254610a079190610ea5565b9250508190555080856002016000828254610a229190610ea5565b92505081905550348560040160008881526020019081526020016000206000828254610a4e9190610ea5565b92505081905550808560050160008881526020019081526020016000206000828254610a7a9190610ea5565b9250508190555034600160008881526020019081526020016000206000828254610aa49190610ea5565b9250508190555080600260008881526020019081526020016000206000828254610ace9190610ea5565b925050819055503373ffffffffffffffffffffffffffffffffffffffff167febdbfdd8b310d67ee2df6ab0914f1adc2e2d0574b0f728ce876e17a2a070cebd883489604051610b1f939291906112e1565b60405180910390a250505050505050565b6201518081610b3f919061131f565b60036000828254610b509190610ea5565b9250508190555050565b60055481565b6000604051905090565b600080fd5b600080fd5b6000819050919050565b610b8781610b74565b8114610b9257600080fd5b50565b600081359050610ba481610b7e565b92915050565b600060208284031215610bc057610bbf610b6a565b5b6000610bce84828501610b95565b91505092915050565b610be081610b74565b82525050565b6000602082019050610bfb6000830184610bd7565b92915050565b600080fd5b600080fd5b6000601f19601f8301169050919050565b7f4e487b7100000000000000000000000000000000000000000000000000000000600052604160045260246000fd5b610c5482610c0b565b810181811067ffffffffffffffff82111715610c7357610c72610c1c565b5b80604052505050565b6000610c86610b60565b9050610c928282610c4b565b919050565b600067ffffffffffffffff821115610cb257610cb1610c1c565b5b610cbb82610c0b565b9050602081019050919050565b82818337600083830152505050565b6000610cea610ce584610c97565b610c7c565b905082815260208101848484011115610d0657610d05610c06565b5b610d11848285610cc8565b509392505050565b600082601f830112610d2e57610d2d610c01565b5b8135610d3e848260208601610cd7565b91505092915050565b600060208284031215610d5d57610d5c610b6a565b5b600082013567ffffffffffffffff811115610d7b57610d7a610b6f565b5b610d8784828501610d19565b91505092915050565b600073ffffffffffffffffffffffffffffffffffffffff82169050919050565b6000610dbb82610d90565b9050919050565b610dcb81610db0565b82525050565b6000608082019050610de66000830187610dc2565b610df36020830186610bd7565b610e006040830185610bd7565b610e0d6060830184610bd7565b95945050505050565b7f4e487b7100000000000000000000000000000000000000000000000000000000600052601260045260246000fd5b7f4e487b7100000000000000000000000000000000000000000000000000000000600052601160045260246000fd5b6000610e7f82610b74565b9150610e8a83610b74565b925082610e9a57610e99610e16565b5b828204905092915050565b6000610eb082610b74565b9150610ebb83610b74565b9250828201905080821115610ed357610ed2610e45565b5b92915050565b600081519050919050565b600081905092915050565b60005b83811015610f0d578082015181840152602081019050610ef2565b60008484015250505050565b6000610f2482610ed9565b610f2e8185610ee4565b9350610f3e818560208601610eef565b80840191505092915050565b6000610f568284610f19565b915081905092915050565b600082825260208201905092915050565b7f4f6e6c79207468652070726f6a6563742063726561746f722063616e2077697460008201527f6864726177000000000000000000000000000000000000000000000000000000602082015250565b6000610fce602583610f61565b9150610fd982610f72565b604082019050919050565b60006020820190508181036000830152610ffd81610fc1565b9050919050565b600061100f82610b74565b91507fffffffffffffffffffffffffffffffffffffffffffffffffffffffffffffffff820361104157611040610e45565b5b600182019050919050565b7f4e6f2066756e647320746f207769746864726177000000000000000000000000600082015250565b6000611082601483610f61565b915061108d8261104c565b602082019050919050565b600060208201905081810360008301526110b181611075565b9050919050565b60006110c382610b74565b91506110ce83610b74565b92508282039050818111156110e6576110e5610e45565b5b92915050565b60006110f782610ed9565b6111018185610f61565b9350611111818560208601610eef565b61111a81610c0b565b840191505092915050565b6000604082019050818103600083015261113f81856110ec565b905061114e6020830184610bd7565b9392505050565b7f50726f6a65637420616c72656164792065786973747300000000000000000000600082015250565b600061118b601683610f61565b915061119682611155565b602082019050919050565b600060208201905081810360008301526111ba8161117e565b9050919050565b600060208201905081810360008301526111db81846110ec565b905092915050565b7f446f6e6174696f6e20616d6f756e74206d75737420626520677265617465722060008201527f7468616e20300000000000000000000000000000000000000000000000000000602082015250565b600061123f602683610f61565b915061124a826111e3565b604082019050919050565b6000602082019050818103600083015261126e81611232565b9050919050565b7f50726f6a65637420646f65736e27742065786973740000000000000000000000600082015250565b60006112ab601583610f61565b91506112b682611275565b602082019050919050565b600060208201905081810360008301526112da8161129e565b9050919050565b600060608201905081810360008301526112fb81866110ec565b905061130a6020830185610bd7565b6113176040830184610bd7565b949350505050565b600061132a82610b74565b915061133583610b74565b925082820261134381610b74565b9150828204841483151761135a57611359610e45565b5b509291505056fea264697066735822122035af23c9ff3bdfd9567a98646885bd392f2ba22a4e14d6225bb524ca37c3b31664736f6c63430008130033",
  "linkReferences": {},
  "deployedLinkReferences": {}
}