{
  "_format": "hh-sol-artifact-1",
  "contractName": "QuadraticFunding",
  "sourceName": "contracts/QuadraticFunding.sol",
  "abi": [
    {
      "inputs": [
        {
          "internalType": "address",
          "name": "_tokenAddress",
          "type": "address"
        }
      ],
      "stateMutability": "nonpayable",
      "type": "constructor"
    },
    {
      "anonymous": false,
      "inputs": [
        {
          "indexed": true,
          "internalType": "address",
          "name": "donor",
          "type": "address"
        },
        {
          "indexed": false,
          "internalType": "string",
          "name": "projectId",
          "type": "string"
        },
        {
          "indexed": false,
          "internalType": "uint256",
          "name": "amount",
          "type": "uint256"
        },
        {
          "indexed": false,
          "internalType": "uint256",
          "name": "day",
          "type": "uint256"
        }
      ],
      "name": "DonationReceived",
      "type": "event"
    },
    {
      "anonymous": false,
      "inputs": [
        {
          "indexed": false,
          "internalType": "string",
          "name": "projectId",
          "type": "string"
        },
        {
          "indexed": true,
          "internalType": "address",
          "name": "creator",
          "type": "address"
        }
      ],
      "name": "ProjectRegistered",
      "type": "event"
    },
    {
      "anonymous": false,
      "inputs": [
        {
          "indexed": false,
          "internalType": "string",
          "name": "projectId",
          "type": "string"
        },
        {
          "indexed": false,
          "internalType": "uint256",
          "name": "amount",
          "type": "uint256"
        }
      ],
      "name": "Withdrawn",
      "type": "event"
    },
    {
      "inputs": [],
      "name": "DAY_IN_SECONDS",
      "outputs": [
        {
          "internalType": "uint256",
          "name": "",
          "type": "uint256"
        }
      ],
      "stateMutability": "view",
      "type": "function"
    },
    {
      "inputs": [
        {
          "internalType": "uint256",
          "name": "time",
          "type": "uint256"
        }
      ],
      "name": "addDays",
      "outputs": [],
      "stateMutability": "nonpayable",
      "type": "function"
    },
    {
      "inputs": [
        {
          "internalType": "uint256",
          "name": "x",
          "type": "uint256"
        }
      ],
      "name": "babylonianSqrt",
      "outputs": [
        {
          "internalType": "uint256",
          "name": "z",
          "type": "uint256"
        }
      ],
      "stateMutability": "pure",
      "type": "function"
    },
    {
      "inputs": [
        {
          "internalType": "uint256",
          "name": "",
          "type": "uint256"
        }
      ],
      "name": "dayQuadraticAmount",
      "outputs": [
        {
          "internalType": "uint256",
          "name": "",
          "type": "uint256"
        }
      ],
      "stateMutability": "view",
      "type": "function"
    },
    {
      "inputs": [
        {
          "internalType": "uint256",
          "name": "",
          "type": "uint256"
        }
      ],
      "name": "dayTotalAmount",
      "outputs": [
        {
          "internalType": "uint256",
          "name": "",
          "type": "uint256"
        }
      ],
      "stateMutability": "view",
      "type": "function"
    },
    {
      "inputs": [
        {
          "internalType": "string",
          "name": "projectId",
          "type": "string"
        },
        {
          "internalType": "uint256",
          "name": "amount",
          "type": "uint256"
        }
      ],
      "name": "donate",
      "outputs": [],
      "stateMutability": "nonpayable",
      "type": "function"
    },
    {
      "inputs": [],
      "name": "getCurrentDay",
      "outputs": [
        {
          "internalType": "uint256",
          "name": "",
          "type": "uint256"
        }
      ],
      "stateMutability": "view",
      "type": "function"
    },
    {
      "inputs": [
        {
          "internalType": "string",
          "name": "",
          "type": "string"
        }
      ],
      "name": "projects",
      "outputs": [
        {
          "internalType": "address",
          "name": "creator",
          "type": "address"
        },
        {
          "internalType": "uint256",
          "name": "totalAmount",
          "type": "uint256"
        },
        {
          "internalType": "uint256",
          "name": "quadraticAmount",
          "type": "uint256"
        },
        {
          "internalType": "uint256",
          "name": "lastWithdrawDay",
          "type": "uint256"
        }
      ],
      "stateMutability": "view",
      "type": "function"
    },
    {
      "inputs": [
        {
          "internalType": "string",
          "name": "projectId",
          "type": "string"
        }
      ],
      "name": "registerProject",
      "outputs": [],
      "stateMutability": "nonpayable",
      "type": "function"
    },
    {
      "inputs": [],
      "name": "startTimestamp",
      "outputs": [
        {
          "internalType": "uint256",
          "name": "",
          "type": "uint256"
        }
      ],
      "stateMutability": "view",
      "type": "function"
    },
    {
      "inputs": [],
      "name": "token",
      "outputs": [
        {
          "internalType": "contract IERC20",
          "name": "",
          "type": "address"
        }
      ],
      "stateMutability": "view",
      "type": "function"
    },
    {
      "inputs": [
        {
          "internalType": "string",
          "name": "projectId",
          "type": "string"
        }
      ],
      "name": "withdraw",
      "outputs": [],
      "stateMutability": "nonpayable",
      "type": "function"
    }
  ],
  "bytecode": "0x608060405260006003553480156200001657600080fd5b50604051620019d0380380620019d083398181016040528101906200003c9190620000f5565b4260058190555080600660006101000a81548173ffffffffffffffffffffffffffffffffffffffff021916908373ffffffffffffffffffffffffffffffffffffffff1602179055505062000127565b600080fd5b600073ffffffffffffffffffffffffffffffffffffffff82169050919050565b6000620000bd8262000090565b9050919050565b620000cf81620000b0565b8114620000db57600080fd5b50565b600081519050620000ef81620000c4565b92915050565b6000602082840312156200010e576200010d6200008b565b5b60006200011e84828501620000de565b91505092915050565b61189980620001376000396000f3fe608060405234801561001057600080fd5b50600436106100b45760003560e01c80638d2be9cc116100715780638d2be9cc1461018d57806391c9b268146101bd578063dabd5d65146101f0578063e6fd48bc1461020c578063efb21c591461022a578063fc0c546a14610246576100b4565b806304aa0d39146100b957806331fb67c2146100e95780633426e5fc146101055780633e6968b6146101355780635fdc62811461015357806372212ec714610171575b600080fd5b6100d360048036038101906100ce9190610ddc565b610264565b6040516100e09190610e18565b60405180910390f35b61010360048036038101906100fe9190610f79565b6102dd565b005b61011f600480360381019061011a9190610ddc565b610725565b60405161012c9190610e18565b60405180910390f35b61013d61073d565b60405161014a9190610e18565b60405180910390f35b61015b61076d565b6040516101689190610e18565b60405180910390f35b61018b60048036038101906101869190610f79565b610774565b005b6101a760048036038101906101a29190610ddc565b61091b565b6040516101b49190610e18565b60405180910390f35b6101d760048036038101906101d29190610f79565b610933565b6040516101e79493929190611003565b60405180910390f35b61020a60048036038101906102059190610ddc565b610999565b005b6102146109c3565b6040516102219190610e18565b60405180910390f35b610244600480360381019061023f9190611048565b6109c9565b005b61024e610d6c565b60405161025b9190611103565b60405180910390f35b600080820361027657600090506102d8565b819050600060028284610289919061117c565b8361029491906111ad565b61029e919061117c565b90505b818110156102d657809150600282846102ba919061117c565b836102c591906111ad565b6102cf919061117c565b90506102a1565b505b919050565b6000816040516102ed9190611252565b908152602001604051809103902060000160009054906101000a900473ffffffffffffffffffffffffffffffffffffffff1673ffffffffffffffffffffffffffffffffffffffff163373ffffffffffffffffffffffffffffffffffffffff161461038c576040517f08c379a0000000000000000000000000000000000000000000000000000000008152600401610383906112ec565b60405180910390fd5b60007fffffffffffffffffffffffffffffffffffffffffffffffffffffffffffffffff6000836040516103bf9190611252565b908152602001604051809103902060030154146104095760016000836040516103e89190611252565b90815260200160405180910390206003015461040491906111ad565b61040c565b60005b9050600061041861073d565b90506000808390505b828110156104b3576000856040516104399190611252565b90815260200160405180910390206004016000828152602001908152602001600020548261046791906111ad565b91506000808660405161047a9190611252565b908152602001604051809103902060040160008381526020019081526020016000208190555080806104ab9061130c565b915050610421565b50600081116104f7576040517f08c379a00000000000000000000000000000000000000000000000000000000081526004016104ee906113a0565b60405180910390fd5b80600660009054906101000a900473ffffffffffffffffffffffffffffffffffffffff1673ffffffffffffffffffffffffffffffffffffffff166370a08231306040518263ffffffff1660e01b815260040161055391906113c0565b602060405180830381865afa158015610570573d6000803e3d6000fd5b505050506040513d601f19601f8201168201806040525081019061059491906113f0565b10156105d5576040517f08c379a00000000000000000000000000000000000000000000000000000000081526004016105cc90611469565b60405180910390fd5b6001826105e29190611489565b6000856040516105f29190611252565b908152602001604051809103902060030181905550600660009054906101000a900473ffffffffffffffffffffffffffffffffffffffff1673ffffffffffffffffffffffffffffffffffffffff1663a9059cbb33836040518363ffffffff1660e01b81526004016106649291906114bd565b6020604051808303816000875af1158015610683573d6000803e3d6000fd5b505050506040513d601f19601f820116820180604052508101906106a7919061151e565b6106e6576040517f08c379a00000000000000000000000000000000000000000000000000000000081526004016106dd90611597565b60405180910390fd5b7f62749ff237dcf6c0dbdc9a51757aae856cf998baab12f1059bd536a28e355f3d84826040516107179291906115f0565b60405180910390a150505050565b60026020528060005260406000206000915090505481565b6000620151806005546003544261075491906111ad565b61075e9190611489565b610768919061117c565b905090565b6201518081565b600073ffffffffffffffffffffffffffffffffffffffff1660008260405161079c9190611252565b908152602001604051809103902060000160009054906101000a900473ffffffffffffffffffffffffffffffffffffffff1673ffffffffffffffffffffffffffffffffffffffff1614610824576040517f08c379a000000000000000000000000000000000000000000000000000000000815260040161081b9061166c565b60405180910390fd5b336000826040516108359190611252565b908152602001604051809103902060000160006101000a81548173ffffffffffffffffffffffffffffffffffffffff021916908373ffffffffffffffffffffffffffffffffffffffff1602179055507fffffffffffffffffffffffffffffffffffffffffffffffffffffffffffffffff6000826040516108b59190611252565b9081526020016040518091039020600301819055503373ffffffffffffffffffffffffffffffffffffffff167f3a8f8a448d1a644d16017e531e2d5bc31fc5741cb919f2d72a9f1c3efe11213f82604051610910919061168c565b60405180910390a250565b60016020528060005260406000206000915090505481565b6000818051602081018201805184825260208301602085012081835280955050505050506000915090508060000160009054906101000a900473ffffffffffffffffffffffffffffffffffffffff16908060010154908060020154908060030154905084565b62015180816109a891906116ae565b600360008282546109b991906111ad565b9250508190555050565b60055481565b60008111610a0c576040517f08c379a0000000000000000000000000000000000000000000000000000000008152600401610a0390611762565b60405180910390fd5b600073ffffffffffffffffffffffffffffffffffffffff16600083604051610a349190611252565b908152602001604051809103902060000160009054906101000a900473ffffffffffffffffffffffffffffffffffffffff1673ffffffffffffffffffffffffffffffffffffffff1603610abc576040517f08c379a0000000000000000000000000000000000000000000000000000000008152600401610ab3906117ce565b60405180910390fd5b6000610ac661073d565b905060008084604051610ad99190611252565b908152602001604051809103902090506000610b0982600401600085815260200190815260200160002054610264565b905060008483600401600086815260200190815260200160002054610b2e91906111ad565b90506000610b3b82610264565b905060008382610b4b9190611489565b9050600660009054906101000a900473ffffffffffffffffffffffffffffffffffffffff1673ffffffffffffffffffffffffffffffffffffffff166323b872dd33308a6040518463ffffffff1660e01b8152600401610bac939291906117ee565b6020604051808303816000875af1158015610bcb573d6000803e3d6000fd5b505050506040513d601f19601f82011682018060405250810190610bef919061151e565b610c2e576040517f08c379a0000000000000000000000000000000000000000000000000000000008152600401610c2590611597565b60405180910390fd5b86856001016000828254610c4291906111ad565b9250508190555080856002016000828254610c5d91906111ad565b92505081905550868560040160008881526020019081526020016000206000828254610c8991906111ad565b92505081905550808560050160008881526020019081526020016000206000828254610cb591906111ad565b9250508190555086600160008881526020019081526020016000206000828254610cdf91906111ad565b9250508190555080600260008881526020019081526020016000206000828254610d0991906111ad565b925050819055503373ffffffffffffffffffffffffffffffffffffffff167febdbfdd8b310d67ee2df6ab0914f1adc2e2d0574b0f728ce876e17a2a070cebd898989604051610d5a93929190611825565b60405180910390a25050505050505050565b600660009054906101000a900473ffffffffffffffffffffffffffffffffffffffff1681565b6000604051905090565b600080fd5b600080fd5b6000819050919050565b610db981610da6565b8114610dc457600080fd5b50565b600081359050610dd681610db0565b92915050565b600060208284031215610df257610df1610d9c565b5b6000610e0084828501610dc7565b91505092915050565b610e1281610da6565b82525050565b6000602082019050610e2d6000830184610e09565b92915050565b600080fd5b600080fd5b6000601f19601f8301169050919050565b7f4e487b7100000000000000000000000000000000000000000000000000000000600052604160045260246000fd5b610e8682610e3d565b810181811067ffffffffffffffff82111715610ea557610ea4610e4e565b5b80604052505050565b6000610eb8610d92565b9050610ec48282610e7d565b919050565b600067ffffffffffffffff821115610ee457610ee3610e4e565b5b610eed82610e3d565b9050602081019050919050565b82818337600083830152505050565b6000610f1c610f1784610ec9565b610eae565b905082815260208101848484011115610f3857610f37610e38565b5b610f43848285610efa565b509392505050565b600082601f830112610f6057610f5f610e33565b5b8135610f70848260208601610f09565b91505092915050565b600060208284031215610f8f57610f8e610d9c565b5b600082013567ffffffffffffffff811115610fad57610fac610da1565b5b610fb984828501610f4b565b91505092915050565b600073ffffffffffffffffffffffffffffffffffffffff82169050919050565b6000610fed82610fc2565b9050919050565b610ffd81610fe2565b82525050565b60006080820190506110186000830187610ff4565b6110256020830186610e09565b6110326040830185610e09565b61103f6060830184610e09565b95945050505050565b6000806040838503121561105f5761105e610d9c565b5b600083013567ffffffffffffffff81111561107d5761107c610da1565b5b61108985828601610f4b565b925050602061109a85828601610dc7565b9150509250929050565b6000819050919050565b60006110c96110c46110bf84610fc2565b6110a4565b610fc2565b9050919050565b60006110db826110ae565b9050919050565b60006110ed826110d0565b9050919050565b6110fd816110e2565b82525050565b600060208201905061111860008301846110f4565b92915050565b7f4e487b7100000000000000000000000000000000000000000000000000000000600052601260045260246000fd5b7f4e487b7100000000000000000000000000000000000000000000000000000000600052601160045260246000fd5b600061118782610da6565b915061119283610da6565b9250826111a2576111a161111e565b5b828204905092915050565b60006111b882610da6565b91506111c383610da6565b92508282019050808211156111db576111da61114d565b5b92915050565b600081519050919050565b600081905092915050565b60005b838110156112155780820151818401526020810190506111fa565b60008484015250505050565b600061122c826111e1565b61123681856111ec565b93506112468185602086016111f7565b80840191505092915050565b600061125e8284611221565b915081905092915050565b600082825260208201905092915050565b7f4f6e6c79207468652070726f6a6563742063726561746f722063616e2077697460008201527f6864726177000000000000000000000000000000000000000000000000000000602082015250565b60006112d6602583611269565b91506112e18261127a565b604082019050919050565b60006020820190508181036000830152611305816112c9565b9050919050565b600061131782610da6565b91507fffffffffffffffffffffffffffffffffffffffffffffffffffffffffffffffff82036113495761134861114d565b5b600182019050919050565b7f4e6f2066756e647320746f207769746864726177000000000000000000000000600082015250565b600061138a601483611269565b915061139582611354565b602082019050919050565b600060208201905081810360008301526113b98161137d565b9050919050565b60006020820190506113d56000830184610ff4565b92915050565b6000815190506113ea81610db0565b92915050565b60006020828403121561140657611405610d9c565b5b6000611414848285016113db565b91505092915050565b7f496e73756666696369656e7420636f6e74726163742062616c616e6365000000600082015250565b6000611453601d83611269565b915061145e8261141d565b602082019050919050565b6000602082019050818103600083015261148281611446565b9050919050565b600061149482610da6565b915061149f83610da6565b92508282039050818111156114b7576114b661114d565b5b92915050565b60006040820190506114d26000830185610ff4565b6114df6020830184610e09565b9392505050565b60008115159050919050565b6114fb816114e6565b811461150657600080fd5b50565b600081519050611518816114f2565b92915050565b60006020828403121561153457611533610d9c565b5b600061154284828501611509565b91505092915050565b7f5472616e73666572206661696c65640000000000000000000000000000000000600082015250565b6000611581600f83611269565b915061158c8261154b565b602082019050919050565b600060208201905081810360008301526115b081611574565b9050919050565b60006115c2826111e1565b6115cc8185611269565b93506115dc8185602086016111f7565b6115e581610e3d565b840191505092915050565b6000604082019050818103600083015261160a81856115b7565b90506116196020830184610e09565b9392505050565b7f50726f6a65637420616c72656164792065786973747300000000000000000000600082015250565b6000611656601683611269565b915061166182611620565b602082019050919050565b6000602082019050818103600083015261168581611649565b9050919050565b600060208201905081810360008301526116a681846115b7565b905092915050565b60006116b982610da6565b91506116c483610da6565b92508282026116d281610da6565b915082820484148315176116e9576116e861114d565b5b5092915050565b7f446f6e6174696f6e20616d6f756e74206d75737420626520677265617465722060008201527f7468616e20300000000000000000000000000000000000000000000000000000602082015250565b600061174c602683611269565b9150611757826116f0565b604082019050919050565b6000602082019050818103600083015261177b8161173f565b9050919050565b7f50726f6a65637420646f65736e27742065786973740000000000000000000000600082015250565b60006117b8601583611269565b91506117c382611782565b602082019050919050565b600060208201905081810360008301526117e7816117ab565b9050919050565b60006060820190506118036000830186610ff4565b6118106020830185610ff4565b61181d6040830184610e09565b949350505050565b6000606082019050818103600083015261183f81866115b7565b905061184e6020830185610e09565b61185b6040830184610e09565b94935050505056fea2646970667358221220216bea53bf4bfea045449a52b9060354f9e3efc935ab6dcf933b52d5035e5ca964736f6c63430008130033",
  "linkReferences": {},
  "deployedLinkReferences": {}
}