{
  "_format": "hh-sol-artifact-1",
  "contractName": "QuadraticFunding",
  "sourceName": "contracts/QuadraticFunding.sol",
  "abi": [
    {
      "inputs": [
        {
          "internalType": "address",
          "name": "_tokenAddress",
          "type": "address"
        }
      ],
      "stateMutability": "nonpayable",
      "type": "constructor"
    },
    {
      "anonymous": false,
      "inputs": [
        {
          "indexed": true,
          "internalType": "address",
          "name": "donor",
          "type": "address"
        },
        {
          "indexed": false,
          "internalType": "string",
          "name": "projectId",
          "type": "string"
        },
        {
          "indexed": false,
          "internalType": "uint256",
          "name": "amount",
          "type": "uint256"
        },
        {
          "indexed": false,
          "internalType": "uint256",
          "name": "day",
          "type": "uint256"
        }
      ],
      "name": "DonationReceived",
      "type": "event"
    },
    {
      "anonymous": false,
      "inputs": [
        {
          "indexed": false,
          "internalType": "string",
          "name": "projectId",
          "type": "string"
        },
        {
          "indexed": true,
          "internalType": "address",
          "name": "creator",
          "type": "address"
        }
      ],
      "name": "ProjectRegistered",
      "type": "event"
    },
    {
      "anonymous": false,
      "inputs": [
        {
          "indexed": false,
          "internalType": "string",
          "name": "projectId",
          "type": "string"
        },
        {
          "indexed": false,
          "internalType": "uint256",
          "name": "amount",
          "type": "uint256"
        }
      ],
      "name": "Withdrawn",
      "type": "event"
    },
    {
      "inputs": [],
      "name": "DAY_IN_SECONDS",
      "outputs": [
        {
          "internalType": "uint256",
          "name": "",
          "type": "uint256"
        }
      ],
      "stateMutability": "view",
      "type": "function"
    },
    {
      "inputs": [
        {
          "internalType": "uint256",
          "name": "time",
          "type": "uint256"
        }
      ],
      "name": "addDays",
      "outputs": [],
      "stateMutability": "nonpayable",
      "type": "function"
    },
    {
      "inputs": [
        {
          "internalType": "uint256",
          "name": "x",
          "type": "uint256"
        }
      ],
      "name": "babylonianSqrt",
      "outputs": [
        {
          "internalType": "uint256",
          "name": "z",
          "type": "uint256"
        }
      ],
      "stateMutability": "pure",
      "type": "function"
    },
    {
      "inputs": [
        {
          "internalType": "uint256",
          "name": "",
          "type": "uint256"
        }
      ],
      "name": "dayQuadraticAmount",
      "outputs": [
        {
          "internalType": "uint256",
          "name": "",
          "type": "uint256"
        }
      ],
      "stateMutability": "view",
      "type": "function"
    },
    {
      "inputs": [
        {
          "internalType": "uint256",
          "name": "",
          "type": "uint256"
        }
      ],
      "name": "dayTotalAmount",
      "outputs": [
        {
          "internalType": "uint256",
          "name": "",
          "type": "uint256"
        }
      ],
      "stateMutability": "view",
      "type": "function"
    },
    {
      "inputs": [
        {
          "internalType": "string",
          "name": "projectId",
          "type": "string"
        },
        {
          "internalType": "uint256",
          "name": "amount",
          "type": "uint256"
        }
      ],
      "name": "donate",
      "outputs": [],
      "stateMutability": "nonpayable",
      "type": "function"
    },
    {
      "inputs": [],
      "name": "getCurrentDay",
      "outputs": [
        {
          "internalType": "uint256",
          "name": "",
          "type": "uint256"
        }
      ],
      "stateMutability": "view",
      "type": "function"
    },
    {
      "inputs": [
        {
          "internalType": "string",
          "name": "",
          "type": "string"
        }
      ],
      "name": "projects",
      "outputs": [
        {
          "internalType": "address",
          "name": "creator",
          "type": "address"
        },
        {
          "internalType": "uint256",
          "name": "totalAmount",
          "type": "uint256"
        },
        {
          "internalType": "uint256",
          "name": "quadraticAmount",
          "type": "uint256"
        },
        {
          "internalType": "uint256",
          "name": "lastWithdrawDay",
          "type": "uint256"
        }
      ],
      "stateMutability": "view",
      "type": "function"
    },
    {
      "inputs": [
        {
          "internalType": "string",
          "name": "projectId",
          "type": "string"
        }
      ],
      "name": "registerProject",
      "outputs": [],
      "stateMutability": "nonpayable",
      "type": "function"
    },
    {
      "inputs": [],
      "name": "startTimestamp",
      "outputs": [
        {
          "internalType": "uint256",
          "name": "",
          "type": "uint256"
        }
      ],
      "stateMutability": "view",
      "type": "function"
    },
    {
      "inputs": [],
      "name": "token",
      "outputs": [
        {
          "internalType": "contract IERC20",
          "name": "",
          "type": "address"
        }
      ],
      "stateMutability": "view",
      "type": "function"
    },
    {
      "inputs": [
        {
          "internalType": "string",
          "name": "projectId",
          "type": "string"
        }
      ],
      "name": "withdraw",
      "outputs": [],
      "stateMutability": "nonpayable",
      "type": "function"
    }
  ],
  "bytecode": "0x608060405260006003553480156200001657600080fd5b50604051620018703803806200187083398181016040528101906200003c9190620000f5565b4260058190555080600660006101000a81548173ffffffffffffffffffffffffffffffffffffffff021916908373ffffffffffffffffffffffffffffffffffffffff1602179055505062000127565b600080fd5b600073ffffffffffffffffffffffffffffffffffffffff82169050919050565b6000620000bd8262000090565b9050919050565b620000cf81620000b0565b8114620000db57600080fd5b50565b600081519050620000ef81620000c4565b92915050565b6000602082840312156200010e576200010d6200008b565b5b60006200011e84828501620000de565b91505092915050565b61173980620001376000396000f3fe608060405234801561001057600080fd5b50600436106100b45760003560e01c80638d2be9cc116100715780638d2be9cc1461018d57806391c9b268146101bd578063dabd5d65146101f0578063e6fd48bc1461020c578063efb21c591461022a578063fc0c546a14610246576100b4565b806304aa0d39146100b957806331fb67c2146100e95780633426e5fc146101055780633e6968b6146101355780635fdc62811461015357806372212ec714610171575b600080fd5b6100d360048036038101906100ce9190610d45565b610264565b6040516100e09190610d81565b60405180910390f35b61010360048036038101906100fe9190610ee2565b6102dd565b005b61011f600480360381019061011a9190610d45565b61068e565b60405161012c9190610d81565b60405180910390f35b61013d6106a6565b60405161014a9190610d81565b60405180910390f35b61015b6106d6565b6040516101689190610d81565b60405180910390f35b61018b60048036038101906101869190610ee2565b6106dd565b005b6101a760048036038101906101a29190610d45565b610884565b6040516101b49190610d81565b60405180910390f35b6101d760048036038101906101d29190610ee2565b61089c565b6040516101e79493929190610f6c565b60405180910390f35b61020a60048036038101906102059190610d45565b610902565b005b61021461092c565b6040516102219190610d81565b60405180910390f35b610244600480360381019061023f9190610fb1565b610932565b005b61024e610cd5565b60405161025b919061106c565b60405180910390f35b600080820361027657600090506102d8565b81905060006002828461028991906110e5565b836102949190611116565b61029e91906110e5565b90505b818110156102d657809150600282846102ba91906110e5565b836102c59190611116565b6102cf91906110e5565b90506102a1565b505b919050565b6000816040516102ed91906111bb565b908152602001604051809103902060000160009054906101000a900473ffffffffffffffffffffffffffffffffffffffff1673ffffffffffffffffffffffffffffffffffffffff163373ffffffffffffffffffffffffffffffffffffffff161461038c576040517f08c379a000000000000000000000000000000000000000000000000000000000815260040161038390611255565b60405180910390fd5b60007fffffffffffffffffffffffffffffffffffffffffffffffffffffffffffffffff6000836040516103bf91906111bb565b908152602001604051809103902060030154146104095760016000836040516103e891906111bb565b9081526020016040518091039020600301546104049190611116565b61040c565b60005b905060006104186106a6565b90506000808390505b828110156104b35760008560405161043991906111bb565b9081526020016040518091039020600401600082815260200190815260200160002054826104679190611116565b91506000808660405161047a91906111bb565b908152602001604051809103902060040160008381526020019081526020016000208190555080806104ab90611275565b915050610421565b50600081116104f7576040517f08c379a00000000000000000000000000000000000000000000000000000000081526004016104ee90611309565b60405180910390fd5b6001826105049190611329565b60008560405161051491906111bb565b9081526020016040518091039020600301819055503373ffffffffffffffffffffffffffffffffffffffff166108fc829081150290604051600060405180830381858888f1935050505015801561056f573d6000803e3d6000fd5b50600660009054906101000a900473ffffffffffffffffffffffffffffffffffffffff1673ffffffffffffffffffffffffffffffffffffffff1663a9059cbb33836040518363ffffffff1660e01b81526004016105cd92919061135d565b6020604051808303816000875af11580156105ec573d6000803e3d6000fd5b505050506040513d601f19601f8201168201806040525081019061061091906113be565b61064f576040517f08c379a000000000000000000000000000000000000000000000000000000000815260040161064690611437565b60405180910390fd5b7f62749ff237dcf6c0dbdc9a51757aae856cf998baab12f1059bd536a28e355f3d8482604051610680929190611490565b60405180910390a150505050565b60026020528060005260406000206000915090505481565b600062015180600554600354426106bd9190611116565b6106c79190611329565b6106d191906110e5565b905090565b6201518081565b600073ffffffffffffffffffffffffffffffffffffffff1660008260405161070591906111bb565b908152602001604051809103902060000160009054906101000a900473ffffffffffffffffffffffffffffffffffffffff1673ffffffffffffffffffffffffffffffffffffffff161461078d576040517f08c379a00000000000000000000000000000000000000000000000000000000081526004016107849061150c565b60405180910390fd5b3360008260405161079e91906111bb565b908152602001604051809103902060000160006101000a81548173ffffffffffffffffffffffffffffffffffffffff021916908373ffffffffffffffffffffffffffffffffffffffff1602179055507fffffffffffffffffffffffffffffffffffffffffffffffffffffffffffffffff60008260405161081e91906111bb565b9081526020016040518091039020600301819055503373ffffffffffffffffffffffffffffffffffffffff167f3a8f8a448d1a644d16017e531e2d5bc31fc5741cb919f2d72a9f1c3efe11213f82604051610879919061152c565b60405180910390a250565b60016020528060005260406000206000915090505481565b6000818051602081018201805184825260208301602085012081835280955050505050506000915090508060000160009054906101000a900473ffffffffffffffffffffffffffffffffffffffff16908060010154908060020154908060030154905084565b6201518081610911919061154e565b600360008282546109229190611116565b9250508190555050565b60055481565b60008111610975576040517f08c379a000000000000000000000000000000000000000000000000000000000815260040161096c90611602565b60405180910390fd5b600073ffffffffffffffffffffffffffffffffffffffff1660008360405161099d91906111bb565b908152602001604051809103902060000160009054906101000a900473ffffffffffffffffffffffffffffffffffffffff1673ffffffffffffffffffffffffffffffffffffffff1603610a25576040517f08c379a0000000000000000000000000000000000000000000000000000000008152600401610a1c9061166e565b60405180910390fd5b6000610a2f6106a6565b905060008084604051610a4291906111bb565b908152602001604051809103902090506000610a7282600401600085815260200190815260200160002054610264565b905060008483600401600086815260200190815260200160002054610a979190611116565b90506000610aa482610264565b905060008382610ab49190611329565b9050600660009054906101000a900473ffffffffffffffffffffffffffffffffffffffff1673ffffffffffffffffffffffffffffffffffffffff166323b872dd33308a6040518463ffffffff1660e01b8152600401610b159392919061168e565b6020604051808303816000875af1158015610b34573d6000803e3d6000fd5b505050506040513d601f19601f82011682018060405250810190610b5891906113be565b610b97576040517f08c379a0000000000000000000000000000000000000000000000000000000008152600401610b8e90611437565b60405180910390fd5b86856001016000828254610bab9190611116565b9250508190555080856002016000828254610bc69190611116565b92505081905550868560040160008881526020019081526020016000206000828254610bf29190611116565b92505081905550808560050160008881526020019081526020016000206000828254610c1e9190611116565b9250508190555086600160008881526020019081526020016000206000828254610c489190611116565b9250508190555080600260008881526020019081526020016000206000828254610c729190611116565b925050819055503373ffffffffffffffffffffffffffffffffffffffff167febdbfdd8b310d67ee2df6ab0914f1adc2e2d0574b0f728ce876e17a2a070cebd898989604051610cc3939291906116c5565b60405180910390a25050505050505050565b600660009054906101000a900473ffffffffffffffffffffffffffffffffffffffff1681565b6000604051905090565b600080fd5b600080fd5b6000819050919050565b610d2281610d0f565b8114610d2d57600080fd5b50565b600081359050610d3f81610d19565b92915050565b600060208284031215610d5b57610d5a610d05565b5b6000610d6984828501610d30565b91505092915050565b610d7b81610d0f565b82525050565b6000602082019050610d966000830184610d72565b92915050565b600080fd5b600080fd5b6000601f19601f8301169050919050565b7f4e487b7100000000000000000000000000000000000000000000000000000000600052604160045260246000fd5b610def82610da6565b810181811067ffffffffffffffff82111715610e0e57610e0d610db7565b5b80604052505050565b6000610e21610cfb565b9050610e2d8282610de6565b919050565b600067ffffffffffffffff821115610e4d57610e4c610db7565b5b610e5682610da6565b9050602081019050919050565b82818337600083830152505050565b6000610e85610e8084610e32565b610e17565b905082815260208101848484011115610ea157610ea0610da1565b5b610eac848285610e63565b509392505050565b600082601f830112610ec957610ec8610d9c565b5b8135610ed9848260208601610e72565b91505092915050565b600060208284031215610ef857610ef7610d05565b5b600082013567ffffffffffffffff811115610f1657610f15610d0a565b5b610f2284828501610eb4565b91505092915050565b600073ffffffffffffffffffffffffffffffffffffffff82169050919050565b6000610f5682610f2b565b9050919050565b610f6681610f4b565b82525050565b6000608082019050610f816000830187610f5d565b610f8e6020830186610d72565b610f9b6040830185610d72565b610fa86060830184610d72565b95945050505050565b60008060408385031215610fc857610fc7610d05565b5b600083013567ffffffffffffffff811115610fe657610fe5610d0a565b5b610ff285828601610eb4565b925050602061100385828601610d30565b9150509250929050565b6000819050919050565b600061103261102d61102884610f2b565b61100d565b610f2b565b9050919050565b600061104482611017565b9050919050565b600061105682611039565b9050919050565b6110668161104b565b82525050565b6000602082019050611081600083018461105d565b92915050565b7f4e487b7100000000000000000000000000000000000000000000000000000000600052601260045260246000fd5b7f4e487b7100000000000000000000000000000000000000000000000000000000600052601160045260246000fd5b60006110f082610d0f565b91506110fb83610d0f565b92508261110b5761110a611087565b5b828204905092915050565b600061112182610d0f565b915061112c83610d0f565b9250828201905080821115611144576111436110b6565b5b92915050565b600081519050919050565b600081905092915050565b60005b8381101561117e578082015181840152602081019050611163565b60008484015250505050565b60006111958261114a565b61119f8185611155565b93506111af818560208601611160565b80840191505092915050565b60006111c7828461118a565b915081905092915050565b600082825260208201905092915050565b7f4f6e6c79207468652070726f6a6563742063726561746f722063616e2077697460008201527f6864726177000000000000000000000000000000000000000000000000000000602082015250565b600061123f6025836111d2565b915061124a826111e3565b604082019050919050565b6000602082019050818103600083015261126e81611232565b9050919050565b600061128082610d0f565b91507fffffffffffffffffffffffffffffffffffffffffffffffffffffffffffffffff82036112b2576112b16110b6565b5b600182019050919050565b7f4e6f2066756e647320746f207769746864726177000000000000000000000000600082015250565b60006112f36014836111d2565b91506112fe826112bd565b602082019050919050565b60006020820190508181036000830152611322816112e6565b9050919050565b600061133482610d0f565b915061133f83610d0f565b9250828203905081811115611357576113566110b6565b5b92915050565b60006040820190506113726000830185610f5d565b61137f6020830184610d72565b9392505050565b60008115159050919050565b61139b81611386565b81146113a657600080fd5b50565b6000815190506113b881611392565b92915050565b6000602082840312156113d4576113d3610d05565b5b60006113e2848285016113a9565b91505092915050565b7f5472616e73666572206661696c65640000000000000000000000000000000000600082015250565b6000611421600f836111d2565b915061142c826113eb565b602082019050919050565b6000602082019050818103600083015261145081611414565b9050919050565b60006114628261114a565b61146c81856111d2565b935061147c818560208601611160565b61148581610da6565b840191505092915050565b600060408201905081810360008301526114aa8185611457565b90506114b96020830184610d72565b9392505050565b7f50726f6a65637420616c72656164792065786973747300000000000000000000600082015250565b60006114f66016836111d2565b9150611501826114c0565b602082019050919050565b60006020820190508181036000830152611525816114e9565b9050919050565b600060208201905081810360008301526115468184611457565b905092915050565b600061155982610d0f565b915061156483610d0f565b925082820261157281610d0f565b91508282048414831517611589576115886110b6565b5b5092915050565b7f446f6e6174696f6e20616d6f756e74206d75737420626520677265617465722060008201527f7468616e20300000000000000000000000000000000000000000000000000000602082015250565b60006115ec6026836111d2565b91506115f782611590565b604082019050919050565b6000602082019050818103600083015261161b816115df565b9050919050565b7f50726f6a65637420646f65736e27742065786973740000000000000000000000600082015250565b60006116586015836111d2565b915061166382611622565b602082019050919050565b600060208201905081810360008301526116878161164b565b9050919050565b60006060820190506116a36000830186610f5d565b6116b06020830185610f5d565b6116bd6040830184610d72565b949350505050565b600060608201905081810360008301526116df8186611457565b90506116ee6020830185610d72565b6116fb6040830184610d72565b94935050505056fea2646970667358221220673f76415e539de20b85941e0124715c98de05d25f93a76e09046a15a669116664736f6c63430008130033",
  "linkReferences": {},
  "deployedLinkReferences": {}
}